:1000200012EF00F0CD6A000EC56E0F0E206EFB0EB3
:10003000216E37EC00F03CEC00F054EC00F0205165
:10004000216429EF00F0020E226ECD84CD921FEFC5
:1000500000F0216231EF00F0226ACD94CD921FEFC3
:1000600000F0010E226ECD82CD941FEF00F02150E2
:1000700002E7211E212A12002050306F0A0E316B38
:10008000312A305EFDE23026310630C060F031C0EA
:1000900030F0316B312A305EFDE23026310630C05F
:1000A00061F031C062F012002150306F0A0E316BE6
:1000B000312A305EFDE23026310630C070F031C0AA
:1000C00030F0316B312A305EFDE23026310630C02F
:0A00D00071F031C072F01200FFD78A
:020000040030CA
:0A000000F8FFFFFF9FFFFFFFFFFF67
:00000001FF
